:1000000014C0D5C02DC02CC02BC02AC029C028C008
:1000100027C026C025C024C023C022C021C020C0C4
:100020001FC01EC01DC00D0A000011241FBECFE559
:10003000D4E0DEBFCDBF10E0A0E6B0E0E4E9F5E03B
:1000400002C005900D92AC36B107D9F710E0ACE6CE
:10005000B0E001C01D92A539B107E1F702D098C206
:10006000CFCFEF92FF920F931F93DF93CF930F9217
:10007000CDB7DEB71982B8D18F9A979A84EC99E000
:1000800020E931E0F9013197F1F70197D9F784ECD4
:1000900099E020E931E0F9013197F1F70197D9F7BB
:1000A00084EC99E020E931E0F9013197F1F701970B
:1000B000D9F72AD184EC99E020E931E0F9013197B0
:1000C000F1F70197D9F78AE090E066D0789480E65E
:1000D00090E098D183E690E095D1B99800E010E0E7
:1000E0007E010894E11CF11CB19B03C001151105B0
:1000F00071F0B19903C001E010E009C081E063E252
:10010000A7014AD189818F5F898300E010E0BDD0CB
:1001100085B7806885BF889585B78F7785BFE4CF21
:10012000C2989FB9779BFECF8FB9779BFECFC29ABB
:100130000895C2989FB9779BFECF3FB18FB9779B47
:10014000FECF2FB1932F80E0C29A30E0282B392BBD
:10015000C9010895C2981FB8779BFECFC29A8FB18C
:100160000895C2988FB9779BFECF6FB9779BFECF6A
:10017000C29A0895C29880EB8FB9779BFECF1FB8C3
:10018000779BFECFC29A8FB10895BB9ABD9ABA9A57
:10019000BC9881E58DB908958F779070906EC0DF1F
:1001A00081E092E8BDDF83E092E8BADF08957894B9
:1001B0001F920F920FB60F9211242F933F934F93DC
:1001C0005F936F937F938F939F93AF93BF93EF93BF
:1001D000FF938BB78F7B8BBFC2981FB8779BFECFE7
:1001E000C29A7C9B0BC080917000909171008D7FB2
:1001F00097DF809170009091710092DF80916C0088
:10020000823069F590916F0080916E00981790F49C
:10021000E92FF0E0EE58FF4FE0819F5F90936F0071
:10022000C29888EB8FB9779BFECFEFB9779BFECF53
:10023000C29A17C010926D0083E092E871DF83E0EC
:1002400092E89093710080937000C29888EB8FB908
:10025000779BFECF8AEA8FB9779BFECFC29A109226
:100260006C008BB780648BBFFF91EF91BF91AF9112
:100270009F918F917F916F915F914F913F912F91BE
:100280000F900FBE0F901F90189580916C008823DF
:1002900031F580916D00813011F58BB78F7B8BBF6D
:1002A00083E092E83DDF809174008A5F80936E0066
:1002B00010926F0082E080936C0083E292E890934A
:1002C0007100809370008AEA98EB2ADF8AEA98EB43
:1002D00027DF83E292E824DF8BB780648BBF089529
:1002E000982F80916D00882311F083E0089560932A
:1002F000740090937500692760956093760081E0A3
:1003000080936D0080E80895C29ABA9ABB9ABD9A0C
:10031000BA9ABC9881E58DB98DE28093720084ED24
:100320008093730087ED90E8FBDE83E092E8F8DECF
:1003300080EB94EAF5DE83E296ECF2DE8CE294E95F
:10034000EFDE8BEA92ECECDE81E89AECE9DE87EFF7
:1003500094ECE6DE80E798E9E3DE80E098ECE0DE0E
:1003600080E090EEDDDE83E092E890937100809370
:10037000700085B7826085BF80E090E0DADE8AB7E2
:1003800080648ABF81E89AECCBDE83E89AECC8DE11
:100390008BB780648BBF08950F931F93082F162F80
:1003A0008F3110F082E01DC080916D008823C1F470
:1003B00027E730E0C901BA01402F50E09DD080917D
:1003C0006D00882369F40093740010937500102762
:1003D00010951093760081E080936D0080E801C055
:1003E00083E01F910F910895909A539A80B5866883
:1003F00080BD549A10BC83E389B908955D9BFECFFC
:100400008CB90895FC0104C05D9BFECF31968CB978
:1004100080818823C9F70895FC0104C05D9BFECF4D
:100420008CB9319684918823C9F708955F9BFECFDC
:100430008CB10895FC015F9902C080E008958CB1F1
:10044000808381E00895AF92BF92CF92DF92EF92C6
:10045000FF920F931F93DF93CF9300D00F92CDB7EE
:10046000DEB77C018B01DD245E010894A11CB11C68
:1004700080E2C82E2DC0F7018081992787FD9095D5
:10048000B50140E150E041D08A81882319F45D9B99
:10049000FECFCCB8F50104C05D9BFECF31968CB980
:1004A00080818823C9F75D9BFECFCCB8D394F0E15F
:1004B000DF1659F4E6E2F0E004C05D9BFECF8CB994
:1004C000319684918823C9F7DD240894E11CF11C3E
:1004D000015010408FEF0F3F180769F60F900F90F3
:1004E0000F90CF91DF911F910F91FF90EF90DF90D0
:1004F000CF90BF90AF900895FB01DC0102C0019046
:100500000D9241505040D8F70895FB019F01E894A7
:100510004230BCF04532ACF44A3029F497FB1EF46B
:10052000909581959F4F642F77271ED0805D8A33E9
:100530000CF0895D8193CB010097A9F716F45DE279
:1005400051931082C90100C0DC01FC01672F719139
:100550007723E1F7329704C07C916D9370836291A9
:10056000AE17BF07C8F30895AA1BBB1B51E107C014
:10057000AA1FBB1FA617B70710F0A61BB70B881F33
:10058000991F5A95A9F780959095BC01CD010895C2
:04059000F894FFCF0D
:0C0594000D0A0048656C6C6F0D0A000039
:00000001FF
